{
    "contractName": "ERC20",
    "abi": [
        {
            "inputs": [
                {
                    "internalType": "string",
                    "name": "name_",
                    "type": "string"
                },
                {
                    "internalType": "string",
                    "name": "symbol_",
                    "type": "string"
                },
                {
                    "internalType": "uint256",
                    "name": "initialSupply",
                    "type": "uint256"
                },
                {
                    "internalType": "address",
                    "name": "shop",
                    "type": "address"
                }
            ],
            "stateMutability": "nonpayable",
            "type": "constructor"
        },
        {
            "anonymous": false,
            "inputs": [
                {
                    "indexed": true,
                    "internalType": "address",
                    "name": "owner",
                    "type": "address"
                },
                {
                    "indexed": true,
                    "internalType": "address",
                    "name": "to",
                    "type": "address"
                },
                {
                    "indexed": false,
                    "internalType": "uint256",
                    "name": "amount",
                    "type": "uint256"
                }
            ],
            "name": "Approve",
            "type": "event"
        },
        {
            "anonymous": false,
            "inputs": [
                {
                    "indexed": true,
                    "internalType": "address",
                    "name": "from",
                    "type": "address"
                },
                {
                    "indexed": true,
                    "internalType": "address",
                    "name": "to",
                    "type": "address"
                },
                {
                    "indexed": false,
                    "internalType": "uint256",
                    "name": "amount",
                    "type": "uint256"
                }
            ],
            "name": "Transfer",
            "type": "event"
        },
        {
            "inputs": [
                {
                    "internalType": "address",
                    "name": "_owner",
                    "type": "address"
                },
                {
                    "internalType": "address",
                    "name": "spender",
                    "type": "address"
                }
            ],
            "name": "allowance",
            "outputs": [
                {
                    "internalType": "uint256",
                    "name": "",
                    "type": "uint256"
                }
            ],
            "stateMutability": "view",
            "type": "function"
        },
        {
            "inputs": [
                {
                    "internalType": "address",
                    "name": "spender",
                    "type": "address"
                },
                {
                    "internalType": "uint256",
                    "name": "amount",
                    "type": "uint256"
                }
            ],
            "name": "approve",
            "outputs": [],
            "stateMutability": "nonpayable",
            "type": "function"
        },
        {
            "inputs": [
                {
                    "internalType": "address",
                    "name": "account",
                    "type": "address"
                }
            ],
            "name": "balanceOf",
            "outputs": [
                {
                    "internalType": "uint256",
                    "name": "",
                    "type": "uint256"
                }
            ],
            "stateMutability": "view",
            "type": "function"
        },
        {
            "inputs": [
                {
                    "internalType": "address",
                    "name": "_from",
                    "type": "address"
                },
                {
                    "internalType": "uint256",
                    "name": "amount",
                    "type": "uint256"
                }
            ],
            "name": "burn",
            "outputs": [],
            "stateMutability": "nonpayable",
            "type": "function"
        },
        {
            "inputs": [],
            "name": "decimals",
            "outputs": [
                {
                    "internalType": "uint256",
                    "name": "",
                    "type": "uint256"
                }
            ],
            "stateMutability": "pure",
            "type": "function"
        },
        {
            "inputs": [
                {
                    "internalType": "uint256",
                    "name": "amount",
                    "type": "uint256"
                },
                {
                    "internalType": "address",
                    "name": "shop",
                    "type": "address"
                }
            ],
            "name": "mint",
            "outputs": [],
            "stateMutability": "nonpayable",
            "type": "function"
        },
        {
            "inputs": [],
            "name": "name",
            "outputs": [
                {
                    "internalType": "string",
                    "name": "",
                    "type": "string"
                }
            ],
            "stateMutability": "view",
            "type": "function"
        },
        {
            "inputs": [],
            "name": "symbol",
            "outputs": [
                {
                    "internalType": "string",
                    "name": "",
                    "type": "string"
                }
            ],
            "stateMutability": "view",
            "type": "function"
        },
        {
            "inputs": [],
            "name": "totalSupply",
            "outputs": [
                {
                    "internalType": "uint256",
                    "name": "",
                    "type": "uint256"
                }
            ],
            "stateMutability": "view",
            "type": "function"
        },
        {
            "inputs": [
                {
                    "internalType": "address",
                    "name": "to",
                    "type": "address"
                },
                {
                    "internalType": "uint256",
                    "name": "amount",
                    "type": "uint256"
                }
            ],
            "name": "transfer",
            "outputs": [],
            "stateMutability": "nonpayable",
            "type": "function"
        },
        {
            "inputs": [
                {
                    "internalType": "address",
                    "name": "sender",
                    "type": "address"
                },
                {
                    "internalType": "address",
                    "name": "recipient",
                    "type": "address"
                },
                {
                    "internalType": "uint256",
                    "name": "amount",
                    "type": "uint256"
                }
            ],
            "name": "transferFrom",
            "outputs": [],
            "stateMutability": "nonpayable",
            "type": "function"
        }
    ],
    "bytecode": "608060405234801562000010575f80fd5b5060405162000c6638038062000c66833981016040819052620000339162000213565b60046200004185826200032c565b5060056200005084826200032c565b50600180546001600160a01b031916331790556200006f828262000079565b505050506200041e565b6001546001600160a01b03163314620000c75760405162461bcd60e51b815260206004820152600c60248201526b3737ba1030b71037bbb732b960a11b604482015260640160405180910390fd5b6001600160a01b0381165f9081526002602052604081208054849290620000f0908490620003f8565b92505081905550815f80828254620001099190620003f8565b90915550506040518281526001600160a01b038216905f907fddf252ad1be2c89b69c2b068fc378daa952ba7f163c4a11628f55a4df523b3ef9060200160405180910390a35050565b634e487b7160e01b5f52604160045260245ffd5b5f82601f83011262000176575f80fd5b81516001600160401b038082111562000193576200019362000152565b604051601f8301601f19908116603f01168101908282118183101715620001be57620001be62000152565b8160405283815260209250866020858801011115620001db575f80fd5b5f91505b83821015620001fe5785820183015181830184015290820190620001df565b5f602085830101528094505050505092915050565b5f805f806080858703121562000227575f80fd5b84516001600160401b03808211156200023e575f80fd5b6200024c8883890162000166565b9550602087015191508082111562000262575f80fd5b50620002718782880162000166565b60408701516060880151919550935090506001600160a01b038116811462000297575f80fd5b939692955090935050565b600181811c90821680620002b757607f821691505b602082108103620002d657634e487b7160e01b5f52602260045260245ffd5b50919050565b601f8211156200032757805f5260205f20601f840160051c81016020851015620003035750805b601f840160051c820191505b8181101562000324575f81556001016200030f565b50505b505050565b81516001600160401b0381111562000348576200034862000152565b6200036081620003598454620002a2565b84620002dc565b602080601f83116001811462000396575f84156200037e5750858301515b5f19600386901b1c1916600185901b178555620003f0565b5f85815260208120601f198616915b82811015620003c657888601518255948401946001909101908401620003a5565b5085821015620003e457878501515f19600388901b60f8161c191681555b505060018460011b0185555b505050505050565b808201808211156200041857634e487b7160e01b5f52601160045260245ffd5b92915050565b61083a806200042c5f395ff3fe608060405234801561000f575f80fd5b50600436106100a6575f3560e01c806370a082311161006e57806370a082311461010857806394bf804d1461013057806395d89b41146101435780639dc29fac1461014b578063a9059cbb1461015e578063dd62ed3e14610171575f80fd5b806306fdde03146100aa578063095ea7b3146100c857806318160ddd146100dd57806323b872dd146100ee578063313ce56714610101575b5f80fd5b6100b2610184565b6040516100bf9190610658565b60405180910390f35b6100db6100d63660046106bf565b610214565b005b5f545b6040519081526020016100bf565b6100db6100fc3660046106e7565b610223565b60126100e0565b6100e0610116366004610720565b6001600160a01b03165f9081526002602052604090205490565b6100db61013e366004610740565b610374565b6100b2610444565b6100db6101593660046106bf565b610453565b6100db61016c3660046106bf565b6104e3565b6100e061017f36600461076a565b6105cc565b60606004805461019390610792565b80601f01602080910402602001604051908101604052809291908181526020018280546101bf90610792565b801561020a5780601f106101e15761010080835404028352916020019161020a565b820191905f5260205f20905b8154815290600101906020018083116101ed57829003601f168201915b5050505050905090565b61021f3383836105f8565b5050565b828180610244836001600160a01b03165f9081526002602052604090205490565b101561028b5760405162461bcd60e51b81526020600482015260116024820152706e6f7420656e6f75676820746f6b656e7360781b60448201526064015b60405180910390fd5b6001600160a01b038086165f908152600360209081526040808320938816835292905290812080548592906102c19084906107de565b90915550506001600160a01b0385165f90815260026020526040812080548592906102ed9084906107de565b90915550506001600160a01b0384165f90815260026020526040812080548592906103199084906107f1565b92505081905550836001600160a01b0316856001600160a01b03167fddf252ad1be2c89b69c2b068fc378daa952ba7f163c4a11628f55a4df523b3ef8560405161036591815260200190565b60405180910390a35050505050565b6001546001600160a01b031633146103bd5760405162461bcd60e51b815260206004820152600c60248201526b3737ba1030b71037bbb732b960a11b6044820152606401610282565b6001600160a01b0381165f90815260026020526040812080548492906103e49084906107f1565b92505081905550815f808282546103fb91906107f1565b90915550506040518281526001600160a01b038216905f907fddf252ad1be2c89b69c2b068fc378daa952ba7f163c4a11628f55a4df523b3ef9060200160405180910390a35050565b60606005805461019390610792565b6001546001600160a01b0316331461049c5760405162461bcd60e51b815260206004820152600c60248201526b3737ba1030b71037bbb732b960a11b6044820152606401610282565b6001600160a01b0382165f90815260026020526040812080548392906104c39084906107de565b92505081905550805f808282546104da91906107de565b90915550505050565b335f8181526002602052604090205482908111156105375760405162461bcd60e51b81526020600482015260116024820152706e6f7420656e6f75676820746f6b656e7360781b6044820152606401610282565b335f90815260026020526040812080548592906105559084906107de565b90915550506001600160a01b0384165f90815260026020526040812080548592906105819084906107f1565b90915550506040518381526001600160a01b0385169033907fddf252ad1be2c89b69c2b068fc378daa952ba7f163c4a11628f55a4df523b3ef9060200160405180910390a350505050565b6001600160a01b038083165f908152600360209081526040808320938516835292905220545b92915050565b6001600160a01b038381165f8181526003602090815260408083209487168084529482529182902085905590518481527f6e11fb1b7f119e3f2fa29896ef5fdf8b8a2d0d4df6fe90ba8668e7d8b2ffa25e910160405180910390a3505050565b5f602080835283518060208501525f5b8181101561068457858101830151858201604001528201610668565b505f604082860101526040601f19601f8301168501019250505092915050565b80356001600160a01b03811681146106ba575f80fd5b919050565b5f80604083850312156106d0575f80fd5b6106d9836106a4565b946020939093013593505050565b5f805f606084860312156106f9575f80fd5b610702846106a4565b9250610710602085016106a4565b9150604084013590509250925092565b5f60208284031215610730575f80fd5b610739826106a4565b9392505050565b5f8060408385031215610751575f80fd5b82359150610761602084016106a4565b90509250929050565b5f806040838503121561077b575f80fd5b610784836106a4565b9150610761602084016106a4565b600181811c908216806107a657607f821691505b6020821081036107c457634e487b7160e01b5f52602260045260245ffd5b50919050565b634e487b7160e01b5f52601160045260245ffd5b818103818111156105f2576105f26107ca565b808201808211156105f2576105f26107ca56fea2646970667358221220e62ef23515c3f32833d16462f0092ffaaa7e7c12ccad6fbc96a2e2f83a42752264736f6c63430008180033",
    "sourcePath": "d:/GoIT-HW/Solidity/MyToken-contract/contracts/MyToken.sol",
    "compiler": {
        "name": "solc",
        "version": "0.8.24+commit.e11b9ed9"
    },
    "functionHashes": {
        "allowance(address,address)": "dd62ed3e",
        "approve(address,uint256)": "095ea7b3",
        "balanceOf(address)": "70a08231",
        "burn(address,uint256)": "9dc29fac",
        "decimals()": "313ce567",
        "mint(uint256,address)": "94bf804d",
        "name()": "06fdde03",
        "symbol()": "95d89b41",
        "totalSupply()": "18160ddd",
        "transfer(address,uint256)": "a9059cbb",
        "transferFrom(address,address,uint256)": "23b872dd"
    },
    "gasEstimates": {
        "creation": {
            "codeDepositCost": "421200",
            "executionCost": "infinite",
            "totalCost": "infinite"
        },
        "external": {
            "allowance(address,address)": "infinite",
            "approve(address,uint256)": "24475",
            "balanceOf(address)": "2534",
            "burn(address,uint256)": "infinite",
            "decimals()": "280",
            "mint(uint256,address)": "infinite",
            "name()": "infinite",
            "symbol()": "infinite",
            "totalSupply()": "2324",
            "transfer(address,uint256)": "infinite",
            "transferFrom(address,address,uint256)": "infinite"
        },
        "internal": {
            "_approve(address,address,uint256)": "infinite",
            "_beforeTokenTransfer(address,address,uint256)": "infinite"
        }
    }
}