{
    "contractName": "MShop",
    "abi": [
        {
            "inputs": [],
            "stateMutability": "nonpayable",
            "type": "constructor"
        },
        {
            "anonymous": false,
            "inputs": [
                {
                    "indexed": false,
                    "internalType": "uint256",
                    "name": "_amount",
                    "type": "uint256"
                },
                {
                    "indexed": true,
                    "internalType": "address",
                    "name": "_buyer",
                    "type": "address"
                }
            ],
            "name": "Bought",
            "type": "event"
        },
        {
            "anonymous": false,
            "inputs": [
                {
                    "indexed": false,
                    "internalType": "uint256",
                    "name": "_amount",
                    "type": "uint256"
                },
                {
                    "indexed": true,
                    "internalType": "address",
                    "name": "_seller",
                    "type": "address"
                }
            ],
            "name": "Sold",
            "type": "event"
        },
        {
            "inputs": [],
            "name": "owner",
            "outputs": [
                {
                    "internalType": "address payable",
                    "name": "",
                    "type": "address"
                }
            ],
            "stateMutability": "view",
            "type": "function"
        },
        {
            "inputs": [
                {
                    "internalType": "uint256",
                    "name": "_amountToSell",
                    "type": "uint256"
                }
            ],
            "name": "sell",
            "outputs": [],
            "stateMutability": "nonpayable",
            "type": "function"
        },
        {
            "inputs": [],
            "name": "token",
            "outputs": [
                {
                    "internalType": "contract IERC20",
                    "name": "",
                    "type": "address"
                }
            ],
            "stateMutability": "view",
            "type": "function"
        },
        {
            "inputs": [],
            "name": "tokenBalance",
            "outputs": [
                {
                    "internalType": "uint256",
                    "name": "",
                    "type": "uint256"
                }
            ],
            "stateMutability": "view",
            "type": "function"
        },
        {
            "stateMutability": "payable",
            "type": "receive"
        }
    ],
    "bytecode": "608060405234801561000f575f80fd5b503060405161001d90610075565b6001600160a01b039091168152602001604051809103905ff080158015610046573d5f803e3d5ffd5b505f80546001600160a01b03929092166001600160a01b03199283161790556001805490911633179055610082565b610b9c806105a283390190565b6105138061008f5f395ff3fe608060405260043610610041575f3560e01c80638da5cb5b146101715780639e1a4d19146101ad578063e4849b32146101cf578063fc0c546a146101f0575f80fd5b3661016d57348061008d5760405162461bcd60e51b81526020600482015260116024820152706e6f7420656e6f7567682066756e64732160781b60448201526064015b60405180910390fd5b8061009661020e565b10156100d85760405162461bcd60e51b81526020600482015260116024820152706e6f7420656e6f75676820746f6b656e7360781b6044820152606401610084565b5f5460405163a9059cbb60e01b8152336004820152602481018390526001600160a01b039091169063a9059cbb906044015f604051808303815f87803b158015610120575f80fd5b505af1158015610132573d5f803e3d5ffd5b50506040518381523392507fc54c8cc1c7525b424ec71b685c00d9355581a280488018c22005332ceb2fd406915060200160405180910390a2005b5f80fd5b34801561017c575f80fd5b50600154610190906001600160a01b031681565b6040516001600160a01b0390911681526020015b60405180910390f35b3480156101b8575f80fd5b506101c161020e565b6040519081526020016101a4565b3480156101da575f80fd5b506101ee6101e93660046104af565b61027d565b005b3480156101fb575f80fd5b505f54610190906001600160a01b031681565b5f80546040516370a0823160e01b81523060048201526001600160a01b03909116906370a0823190602401602060405180830381865afa158015610254573d5f803e3d5ffd5b505050506040513d601f19601f8201168201806040525081019061027891906104c6565b905090565b5f811180156102f357505f546040516370a0823160e01b815233600482015282916001600160a01b0316906370a0823190602401602060405180830381865afa1580156102cc573d5f803e3d5ffd5b505050506040513d601f19601f820116820180604052508101906102f091906104c6565b10155b6103335760405162461bcd60e51b8152602060048201526011602482015270696e636f727265637420616d6f756e742160781b6044820152606401610084565b5f8054604051636eb1769f60e11b81523360048201523060248201526001600160a01b039091169063dd62ed3e90604401602060405180830381865afa15801561037f573d5f803e3d5ffd5b505050506040513d601f19601f820116820180604052508101906103a391906104c6565b9050818110156103e75760405162461bcd60e51b815260206004820152600f60248201526e636865636b20616c6c6f77616e636560881b6044820152606401610084565b5f546040516323b872dd60e01b8152336004820152306024820152604481018490526001600160a01b03909116906323b872dd906064015f604051808303815f87803b158015610435575f80fd5b505af1158015610447573d5f803e3d5ffd5b505060405133925084156108fc02915084905f818181858888f19350505050158015610475573d5f803e3d5ffd5b5060405182815233907fdc0971a41bd3cc3dec88e610438b1a9f0752975bbd80f195baf7b766c0aec03e9060200160405180910390a25050565b5f602082840312156104bf575f80fd5b5035919050565b5f602082840312156104d6575f80fd5b505191905056fea2646970667358221220fdd56209764e44a018a8ad002a286eb5cc9217b16ce04b9ed2cbed2202f01eed64736f6c63430008180033608060405234801562000010575f80fd5b5060405162000b9c38038062000b9c833981016040819052620000339162000195565b6040518060400160405280600781526020016626bcaa37b5b2b760c91b815250604051806040016040528060038152602001624d544b60e81b815250601483836004908162000083919062000262565b50600562000092848262000262565b50600180546001600160a01b03191633179055620000b18282620000bc565b505050505062000354565b6001546001600160a01b031633146200010a5760405162461bcd60e51b815260206004820152600c60248201526b3737ba1030b71037bbb732b960a11b604482015260640160405180910390fd5b6001600160a01b0381165f9081526002602052604081208054849290620001339084906200032e565b92505081905550815f808282546200014c91906200032e565b90915550506040518281526001600160a01b038216905f907fddf252ad1be2c89b69c2b068fc378daa952ba7f163c4a11628f55a4df523b3ef9060200160405180910390a35050565b5f60208284031215620001a6575f80fd5b81516001600160a01b0381168114620001bd575f80fd5b9392505050565b634e487b7160e01b5f52604160045260245ffd5b600181811c90821680620001ed57607f821691505b6020821081036200020c57634e487b7160e01b5f52602260045260245ffd5b50919050565b601f8211156200025d57805f5260205f20601f840160051c81016020851015620002395750805b601f840160051c820191505b818110156200025a575f815560010162000245565b50505b505050565b81516001600160401b038111156200027e576200027e620001c4565b62000296816200028f8454620001d8565b8462000212565b602080601f831160018114620002cc575f8415620002b45750858301515b5f19600386901b1c1916600185901b17855562000326565b5f85815260208120601f198616915b82811015620002fc57888601518255948401946001909101908401620002db565b50858210156200031a57878501515f19600388901b60f8161c191681555b505060018460011b0185555b505050505050565b808201808211156200034e57634e487b7160e01b5f52601160045260245ffd5b92915050565b61083a80620003625f395ff3fe608060405234801561000f575f80fd5b50600436106100a6575f3560e01c806370a082311161006e57806370a082311461010857806394bf804d1461013057806395d89b41146101435780639dc29fac1461014b578063a9059cbb1461015e578063dd62ed3e14610171575f80fd5b806306fdde03146100aa578063095ea7b3146100c857806318160ddd146100dd57806323b872dd146100ee578063313ce56714610101575b5f80fd5b6100b2610184565b6040516100bf9190610658565b60405180910390f35b6100db6100d63660046106bf565b610214565b005b5f545b6040519081526020016100bf565b6100db6100fc3660046106e7565b610223565b60126100e0565b6100e0610116366004610720565b6001600160a01b03165f9081526002602052604090205490565b6100db61013e366004610740565b610374565b6100b2610444565b6100db6101593660046106bf565b610453565b6100db61016c3660046106bf565b6104e3565b6100e061017f36600461076a565b6105cc565b60606004805461019390610792565b80601f01602080910402602001604051908101604052809291908181526020018280546101bf90610792565b801561020a5780601f106101e15761010080835404028352916020019161020a565b820191905f5260205f20905b8154815290600101906020018083116101ed57829003601f168201915b5050505050905090565b61021f3383836105f8565b5050565b828180610244836001600160a01b03165f9081526002602052604090205490565b101561028b5760405162461bcd60e51b81526020600482015260116024820152706e6f7420656e6f75676820746f6b656e7360781b60448201526064015b60405180910390fd5b6001600160a01b038086165f908152600360209081526040808320938816835292905290812080548592906102c19084906107de565b90915550506001600160a01b0385165f90815260026020526040812080548592906102ed9084906107de565b90915550506001600160a01b0384165f90815260026020526040812080548592906103199084906107f1565b92505081905550836001600160a01b0316856001600160a01b03167fddf252ad1be2c89b69c2b068fc378daa952ba7f163c4a11628f55a4df523b3ef8560405161036591815260200190565b60405180910390a35050505050565b6001546001600160a01b031633146103bd5760405162461bcd60e51b815260206004820152600c60248201526b3737ba1030b71037bbb732b960a11b6044820152606401610282565b6001600160a01b0381165f90815260026020526040812080548492906103e49084906107f1565b92505081905550815f808282546103fb91906107f1565b90915550506040518281526001600160a01b038216905f907fddf252ad1be2c89b69c2b068fc378daa952ba7f163c4a11628f55a4df523b3ef9060200160405180910390a35050565b60606005805461019390610792565b6001546001600160a01b0316331461049c5760405162461bcd60e51b815260206004820152600c60248201526b3737ba1030b71037bbb732b960a11b6044820152606401610282565b6001600160a01b0382165f90815260026020526040812080548392906104c39084906107de565b92505081905550805f808282546104da91906107de565b90915550505050565b335f8181526002602052604090205482908111156105375760405162461bcd60e51b81526020600482015260116024820152706e6f7420656e6f75676820746f6b656e7360781b6044820152606401610282565b335f90815260026020526040812080548592906105559084906107de565b90915550506001600160a01b0384165f90815260026020526040812080548592906105819084906107f1565b90915550506040518381526001600160a01b0385169033907fddf252ad1be2c89b69c2b068fc378daa952ba7f163c4a11628f55a4df523b3ef9060200160405180910390a350505050565b6001600160a01b038083165f908152600360209081526040808320938516835292905220545b92915050565b6001600160a01b038381165f8181526003602090815260408083209487168084529482529182902085905590518481527f6e11fb1b7f119e3f2fa29896ef5fdf8b8a2d0d4df6fe90ba8668e7d8b2ffa25e910160405180910390a3505050565b5f602080835283518060208501525f5b8181101561068457858101830151858201604001528201610668565b505f604082860101526040601f19601f8301168501019250505092915050565b80356001600160a01b03811681146106ba575f80fd5b919050565b5f80604083850312156106d0575f80fd5b6106d9836106a4565b946020939093013593505050565b5f805f606084860312156106f9575f80fd5b610702846106a4565b9250610710602085016106a4565b9150604084013590509250925092565b5f60208284031215610730575f80fd5b610739826106a4565b9392505050565b5f8060408385031215610751575f80fd5b82359150610761602084016106a4565b90509250929050565b5f806040838503121561077b575f80fd5b610784836106a4565b9150610761602084016106a4565b600181811c908216806107a657607f821691505b6020821081036107c457634e487b7160e01b5f52602260045260245ffd5b50919050565b634e487b7160e01b5f52601160045260245ffd5b818103818111156105f2576105f26107ca565b808201808211156105f2576105f26107ca56fea2646970667358221220b1c1a20c2b44029744e408e82abafa1b3769e62d364d23a513f1e349821823e864736f6c63430008180033",
    "sourcePath": "d:/GoIT-HW/Solidity/MyToken-contract/contracts/MyToken.sol",
    "compiler": {
        "name": "solc",
        "version": "0.8.24+commit.e11b9ed9"
    },
    "functionHashes": {
        "owner()": "8da5cb5b",
        "sell(uint256)": "e4849b32",
        "token()": "fc0c546a",
        "tokenBalance()": "9e1a4d19"
    },
    "gasEstimates": {
        "creation": {
            "codeDepositCost": "259800",
            "executionCost": "infinite",
            "totalCost": "infinite"
        },
        "external": {
            "owner()": "2303",
            "sell(uint256)": "infinite",
            "token()": "2368",
            "tokenBalance()": "infinite"
        }
    }
}